:100000000C9458000C9480000C9480000C94800098
:100010000C9480000C9480000C9480000C94800060
:100020000C9480000C9480000C9480000C94800050
:100030000C9480000C9480000C9480000C94800040
:100040000C9444020C9480000C9480000C9480006A
:100050000C9480000C9480000C9480000C94800020
:100060000C948E020C9480000000000025002800F3
:100070002B00040404040404040402020202020229
:10008000030303030303010204081020408001025C
:1000900004081020010204081020000000080002DB
:1000A00001000003040700000000000000002F050D
:1000B00011241FBECFEFD8E0DEBFCDBF11E0A0E01E
:1000C000B1E0EAE9FAE002C005900D92A231B10771
:1000D000D9F722E0A2E1B1E001C01D92A630B2073B
:1000E000E1F710E0C8E5D0E004C02197FE010E94CE
:1000F0004005C735D107C9F70E94BC030C944B05D6
:100100000C9400003091F901313208F04BC080911D
:10011000D5018111FCCF9091F80122E02093D50107
:1001200021E02093D4012FEF2093D3011092D2012C
:100130003093D101E8EDF1E0A1EBB1E020E032171E
:1001400021F041914D932F5FFACF1092B001209191
:10015000B001990F922B9093B0019091AF01913023
:1001600061F41092AF019091B0019093BB00909117
:10017000BC0093FDF8CF95EC01C095EE9093BC00C8
:100180009091D5019230E1F39091D3019F3F79F0A6
:100190008091D301803241F08091D301803331F0DE
:1001A00084E005C081E003C082E001C083E01092DA
:1001B000D7011092F9011092D601089591E0909321
:1001C000D6018093F8011092D7011092F901089599
:1001D00090E0FC01E656FF4F2491FC01EA57FF4FE7
:1001E0003491FC01EE58FF4FE491EE23B1F122234C
:1001F00039F1233091F038F42130A9F0223001F5A3
:1002000084B58F7D12C0273091F02830A1F02430C2
:10021000B9F4809180008F7D03C0809180008F773A
:10022000809380000DC084B58F7784BD09C0809114
:10023000B0008F7703C08091B0008F7D8093B000B5
:10024000F0E0EE0FFF1FE859FF4FA591B4918FB773
:10025000F894EC91E32BEC938FBF089508950895E3
:10026000CF92DF92EF92FF920F931F93CF93DF9382
:100270006C017A018B01C0E0D0E0CE15DF0581F082
:10028000D8016D918D01D601ED91FC910190F08125
:10029000E02DC6010995892B11F02196EECF7E0144
:1002A000C701DF91CF911F910F91FF90EF90DF90E9
:1002B000CF9008953FB7F89480917A0190917B0197
:1002C000A0917C01B0917D0126B5A89B05C02F3F70
:1002D00019F00196A11DB11D3FBFBA2FA92F982F6C
:1002E0008827820F911DA11DB11DBC01CD0142E0E7
:1002F000660F771F881F991F4A95D1F7089585EDDE
:100300008093BC008091BC0084FDFCCF1092D5018D
:10031000089540915201262F30E0240F311D2132E3
:100320003105DCF42091D5012430C9F4FC0180E0D2
:1003300090E0861758F4309152012191DC01AE5CB7
:10034000BE4FA30FB11D2C930196F3CF80915201A4
:10035000680F6093520180E0089581E0089582E083
:1003600008950895E091830180918201E81730F4A7
:10037000F0E0EE5EFE4F808190E008958FEF9FEFFA
:1003800008959091830180918201981750F4E92F8C
:10039000F0E0EE5EFE4F208130E09F5F909383019E
:1003A00002C02FEF3FEFC90108958091820190E0D4
:1003B00020918301821B91090895CF92DF92EF92E1
:1003C000FF920F931F93CF93DF937C01CB018A01A0
:1003D0002091D601222389F0EB016B01C40ED51EBA
:1003E000CC15DD0569F06991D701ED91FC91019083
:1003F000F081E02DC7010995F3CF642F0E94890198
:10040000C801DF91CF911F910F91FF90EF90DF9086
:10041000CF900895CF93DF931F92CDB7DEB7698356
:100420002091D6012223D1F02091F901203240F011
:1004300021E030E0FC013383228380E090E015C0AE
:100440008091D701E82FF0E0E852FE4F9981908328
:100450008F5F8093D7018093F90105C061E0CE01E1
:1004600001960E94890181E090E00F90DF91CF9189
:100470000895682F8AEF91E00C940A02089580E0B5
:1004800090E008950E9446051F920F920FB60F92BA
:1004900011242F933F938F939F93AF93BF9380919A
:1004A000760190917701A0917801B0917901309116
:1004B000750123E0230F2D3720F40196A11DB11DF6
:1004C00005C026E8230F0296A11DB11D20937501DA
:1004D0008093760190937701A0937801B09379018E
:1004E00080917A0190917B01A0917C01B0917D0176
:1004F0000196A11DB11D80937A0190937B01A09379
:100500007C01B0937D01BF91AF919F918F913F91FD
:100510002F910F900FBE0F901F9018951F920F9262
:100520000FB60F9211242F933F934F935F936F93C6
:100530007F938F939F93AF93BF93EF93FF9380919C
:10054000B900887F803609F49CC068F5883209F4C8
:100550005BC090F4803109F454C038F4882309F466
:10056000F6C0883009F44DC0F6C0883109F44CC09B
:10057000803209F45DC0EFC0803409F468C048F4EB
:10058000803309F455C0883309F0E5C08093D30166
:10059000D8C0803509F44FC0883509F45DC088346F
:1005A00009F0D9C0D6C0883909F4C7C0A8F4883783
:1005B00009F467C038F4883609F463C0803709F459
:1005C00060C0C9C0883809F4B8C0803909F45FC078
:1005D000803809F0C0C05BC0803B09F486C038F4A5
:1005E000803A09F466C0883A09F47FC0B4C0803C00
:1005F00009F4A7C0883C09F4A4C0883B09F48AC068
:10060000AAC08091B00110C09091D2018091D10117
:10061000981770F5E091D20181E08E0F8093D2019E
:10062000F0E0EF54FE4F80818093BB0085EC86C0E4
:100630008093D3018EC0E091D20181E08E0F809330
:10064000D2018091BB00F0E0EF54FE4F8083909187
:10065000D2018091D1016EC0E091D20181E08E0F74
:100660008093D2018091BB00F0E0EF54FE4F808375
:100670008091D40181116DC081E08093AF0184EA43
:1006800061C083E08093D50110927401CFCF809137
:100690007401803208F051C0E091740181E08E0F46
:1006A000809374018091BB00F0E0EC5AFE4F808390
:1006B000BDCF85EC8093BC001092D5018091740170
:1006C000803230F4E0917401F0E0EC5AFE4F108279
:1006D0006091740170E0E0917E01F0917F0184E50A
:1006E00091E009951092740136C084E08093D501A1
:1006F0001092530110925201E0918001F09181011A
:10070000099580915201811105C081E080935201C9
:1007100010923201E091530181E08E0F80935301DA
:10072000F0E0EE5CFE4F80818093BB00909153011E
:1007300080915201981708F479CF85E88093BC0026
:100740000AC085EC8093BC001092D50104C01092C1
:10075000D3010E947F01FF91EF91BF91AF919F91D3
:100760008F917F916F915F914F913F912F910F905A
:100770000FBE0F901F901895789484B5826084BD49
:1007800084B5816084BD85B5826085BD85B5816095
:1007900085BD80916E00816080936E001092810013
:1007A00080918100826080938100809181008160CE
:1007B000809381008091800081608093800080918F
:1007C000B10084608093B1008091B000816080931B
:1007D000B00080917A00846080937A0080917A00E2
:1007E000826080937A0080917A00816080937A00A1
:1007F00080917A00806880937A001092C1001092F4
:100800008301109282011092D7011092F901109287
:10081000D50181E08093D4011092AF0182E10E9462
:10082000E80083E10E94E8008091B9008E7F809308
:10083000B9008091B9008D7F8093B90088E48093DE
:10084000B80085E48093BC008EE291E09093810132
:10085000809380018FE291E090937F0180937E01ED
:1008600088E60E94DE0088E890E00E94390280E07D
:1008700090E00E9439020E94820088E60E94DE0019
:1008800084E890E00E94390282E090E00E94390200
:100890000E94820088E60E94DE0080EA90E00E94CA
:1008A000390284E090E00E9439020E94820088E6CA
:1008B0000E94DE0082E890E00E94390283E090E02E
:1008C0000E9439020E94820088E60E94DE0080ECCD
:1008D00090E00E94390287E090E00E9439020E9475
:1008E00082008BE2E4E8F1E0DF011D928A95E9F7EE
:1008F00088E60E94DE0080E890E00E94390280E0F5
:1009000090E00E943902C2EAD1E004E811E0F80167
:1009100061918F018AEF91E00E940A02C017D1070E
:10092000B1F70E94820088E60E94DE0080E890E035
:100930000E9439028CE390E00E94390202EA11E041
:10094000D8016D918D018AEF91E00E940A02B1E019
:10095000003B1B07A9F70E94820000E810E030E08E
:10096000E32E30E0F32EE4E8F1E0208180E090E037
:10097000A801082E02C0559547950A94E2F7242B4A
:10098000019687309105A1F7219321E0ED3AF20716
:1009900061F788E60E94DE0080E890E00E9439025C
:1009A00080E090E00E94390224E8A22E21E0B22EDD
:1009B000D5016D915D018AEF91E00E940A02CA158E
:1009C000DB05B1F70E94820088E60E94DE0080E825
:1009D00090E00E9439028CE390E00E94390292EA92
:1009E000A92E91E0B92EF50161915F018AEF91E0A6
:1009F0000E940A02F0EBAF16F1E0BF06A1F70E94D9
:100A000082000E945A012B013C0188EE882E83E06F
:100A1000982EA12CB12C0E945A01DC01CB01841923
:100A20009509A609B709883E9340A105B10598F339
:100A300021E0821A9108A108B10888EE480E83E0EF
:100A4000581E611C711C81149104A104B10419F792
:100A5000E114F10409F487CF0E94000084CFEAEF8B
:100A6000F1E01382128288EE93E0A0E0B0E084838C
:100A70009583A683B78384E091E091838083089572
:100A8000EE0FFF1F0590F491E02D099481E090E0B6
:0A0A9000F8940C944B05F894FFCF86
:100A9A00000000000A02DD013F02B101D501C101D7
:020AAA00B20197
:107E0000112484B714BE81FFF0D085E080938100F7
:107E100082E08093C00088E18093C10086E0809377
:107E2000C20080E18093C4008EE0C9D0259A86E02C
:107E300020E33CEF91E0309385002093840096BBD3
:107E4000B09BFECF1D9AA8958150A9F7CC24DD24C4
:107E500088248394B5E0AB2EA1E19A2EF3E0BF2EE7
:107E6000A2D0813461F49FD0082FAFD0023811F036
:107E7000013811F484E001C083E08DD089C08234E0
:107E800011F484E103C0853419F485E0A6D080C0E4
:107E9000853579F488D0E82EFF2485D0082F10E0AE
:107EA000102F00270E291F29000F111F8ED06801E7
:107EB0006FC0863521F484E090D080E0DECF843638
:107EC00009F040C070D06FD0082F6DD080E0C81688
:107ED00080E7D80618F4F601B7BEE895C0E0D1E017
:107EE00062D089930C17E1F7F0E0CF16F0E7DF06D8
:107EF00018F0F601B7BEE89568D007B600FCFDCFD4
:107F0000A601A0E0B1E02C9130E011968C91119780
:107F100090E0982F8827822B932B1296FA010C0160
:107F200087BEE89511244E5F5F4FF1E0A038BF0790
:107F300051F7F601A7BEE89507B600FCFDCF97BE46
:107F4000E89526C08437B1F42ED02DD0F82E2BD052
:107F50003CD0F601EF2C8F010F5F1F4F84911BD097
:107F6000EA94F801C1F70894C11CD11CFA94CF0C13
:107F7000D11C0EC0853739F428D08EE10CD085E9AC
:107F80000AD08FE07ACF813511F488E018D01DD067
:107F900080E101D065CF982F8091C00085FFFCCF94
:107FA0009093C60008958091C00087FFFCCF809118
:107FB000C00084FD01C0A8958091C6000895E0E648
:107FC000F0E098E1908380830895EDDF803219F02E
:107FD00088E0F5DFFFCF84E1DECF1F93182FE3DFCA
:107FE0001150E9F7F2DF1F91089580E0E8DFEE27F6
:047FF000FF270994CA
:027FFE00040479
:0400000300007E007B
:00000001FF
